{
  "_format": "hh-sol-artifact-1",
  "contractName": "MultiSender",
  "sourceName": "contracts/MultiSend.sol",
  "abi": [
    {
      "inputs": [],
      "stateMutability": "nonpayable",
      "type": "constructor"
    },
    {
      "inputs": [
        {
          "internalType": "address payable[]",
          "name": "addrs",
          "type": "address[]"
        },
        {
          "internalType": "uint256[]",
          "name": "amounts",
          "type": "uint256[]"
        },
        {
          "internalType": "address",
          "name": "_token",
          "type": "address"
        }
      ],
      "name": "multiSender",
      "outputs": [],
      "stateMutability": "nonpayable",
      "type": "function"
    }
  ],
  "bytecode": "0x608060405234801561001057600080fd5b50610a5e806100206000396000f3fe608060405234801561001057600080fd5b506004361061002b5760003560e01c806330d48fdc14610030575b600080fd5b61004a600480360381019061004591906104e1565b61004c565b005b60008190508251845114610095576040517f08c379a000000000000000000000000000000000000000000000000000000000815260040161008c9061072b565b60405180910390fd5b61009e8361021c565b8173ffffffffffffffffffffffffffffffffffffffff1663dd62ed3e33306040518363ffffffff1660e01b81526004016100d99291906106ab565b60206040518083038186803b1580156100f157600080fd5b505afa158015610105573d6000803e3d6000fd5b505050506040513d601f19601f820116820180604052508101906101299190610589565b101561016a576040517f08c379a00000000000000000000000000000000000000000000000000000000081526004016101619061070b565b60405180910390fd5b60005b845181101561021557610202828683815181106101b3577f4e487b7100000000000000000000000000000000000000000000000000000000600052603260045260246000fd5b6020026020010151338785815181106101f5577f4e487b7100000000000000000000000000000000000000000000000000000000600052603260045260246000fd5b60200260200101516102a3565b808061020d90610925565b91505061016d565b5050505050565b6000805b825181101561029d57670de0b6b3a764000083828151811061026b577f4e487b7100000000000000000000000000000000000000000000000000000000600052603260045260246000fd5b602002602001015161027d919061083b565b8261028891906107e5565b9150808061029590610925565b915050610220565b50919050565b8373ffffffffffffffffffffffffffffffffffffffff166323b872dd8385670de0b6b3a7640000856102d5919061083b565b6040518463ffffffff1660e01b81526004016102f3939291906106d4565b602060405180830381600087803b15801561030d57600080fd5b505af1158015610321573d6000803e3d6000fd5b505050506040513d601f19601f820116820180604052508101906103459190610560565b5050505050565b600061035f61035a8461077c565b61074b565b9050808382526020820190508285602086028201111561037e57600080fd5b60005b858110156103ae57816103948882610439565b845260208401935060208301925050600181019050610381565b5050509392505050565b60006103cb6103c6846107a8565b61074b565b905080838252602082019050828560208602820111156103ea57600080fd5b60005b8581101561041a578161040088826104b7565b8452602084019350602083019250506001810190506103ed565b5050509392505050565b600081359050610433816109cc565b92915050565b600081359050610448816109e3565b92915050565b600082601f83011261045f57600080fd5b813561046f84826020860161034c565b91505092915050565b600082601f83011261048957600080fd5b81356104998482602086016103b8565b91505092915050565b6000815190506104b1816109fa565b92915050565b6000813590506104c681610a11565b92915050565b6000815190506104db81610a11565b92915050565b6000806000606084860312156104f657600080fd5b600084013567ffffffffffffffff81111561051057600080fd5b61051c8682870161044e565b935050602084013567ffffffffffffffff81111561053957600080fd5b61054586828701610478565b925050604061055686828701610424565b9150509250925092565b60006020828403121561057257600080fd5b6000610580848285016104a2565b91505092915050565b60006020828403121561059b57600080fd5b60006105a9848285016104cc565b91505092915050565b6105bb816108ef565b82525050565b6105ca81610895565b82525050565b60006105dd602a836107d4565b91507f416c6c6f77616e6365206973206c657373207468616e20616d6f756e7473207460008301527f6f207472616e73666572000000000000000000000000000000000000000000006020830152604082019050919050565b60006106436030836107d4565b91507f416d6f756e74206f6620616464726573736573206f72207472616e736665722060008301527f76616c756573206172652077726f6e67000000000000000000000000000000006020830152604082019050919050565b6106a5816108e5565b82525050565b60006040820190506106c060008301856105c1565b6106cd60208301846105c1565b9392505050565b60006060820190506106e960008301866105c1565b6106f660208301856105b2565b610703604083018461069c565b949350505050565b60006020820190508181036000830152610724816105d0565b9050919050565b6000602082019050818103600083015261074481610636565b9050919050565b6000604051905081810181811067ffffffffffffffff821117156107725761077161099d565b5b8060405250919050565b600067ffffffffffffffff8211156107975761079661099d565b5b602082029050602081019050919050565b600067ffffffffffffffff8211156107c3576107c261099d565b5b602082029050602081019050919050565b600082825260208201905092915050565b60006107f0826108e5565b91506107fb836108e5565b9250827fffffffffffffffffffffffffffffffffffffffffffffffffffffffffffffffff038211156108305761082f61096e565b5b828201905092915050565b6000610846826108e5565b9150610851836108e5565b9250817fffffffffffffffffffffffffffffffffffffffffffffffffffffffffffffffff048311821515161561088a5761088961096e565b5b828202905092915050565b60006108a0826108c5565b9050919050565b60006108b2826108c5565b9050919050565b60008115159050919050565b600073ffffffffffffffffffffffffffffffffffffffff82169050919050565b6000819050919050565b60006108fa82610901565b9050919050565b600061090c82610913565b9050919050565b600061091e826108c5565b9050919050565b6000610930826108e5565b91507fffffffffffffffffffffffffffffffffffffffffffffffffffffffffffffffff8214156109635761096261096e565b5b600182019050919050565b7f4e487b7100000000000000000000000000000000000000000000000000000000600052601160045260246000fd5b7f4e487b7100000000000000000000000000000000000000000000000000000000600052604160045260246000fd5b6109d581610895565b81146109e057600080fd5b50565b6109ec816108a7565b81146109f757600080fd5b50565b610a03816108b9565b8114610a0e57600080fd5b50565b610a1a816108e5565b8114610a2557600080fd5b5056fea2646970667358221220f8ae100fa11f517a4c40dd018609efc2b5203f1361bab7774d3196518e2f5bb464736f6c63430008000033",
  "linkReferences": {},
  "deployedLinkReferences": {}
}